:03000000020008F3
:0300610002000397
:0500030012008C80FEDC
:0400640075802A2257
:0E006800759850438920758DCC758BCCD28E47
:03007600D29922FA
:02007900AA8259
:05007B0010990280FB5A
:030080008A992238
:0500830010980280FB53
:0400880085998222B2
:0A008C001200641200687582001271
:020096000079EF
:0E009800120083AA828A99C002120083AB82F2
:0E00A6008B99C003120083AC82D003D0028C71
:0600B40099BB2A02801A2C
:0500BA00BB2B02800ACF
:0500BF00BB2D02800AC8
:0500C400BB2F38801283
:0500C900EC2AFB80336E
:0600CE00EAC39CFB802D3B
:0700D4008CF0EAA4FB80267A
:0D00DB00EC601DC2D5EC30E704B2D5F40492
:0A00E800F5F0EA30E704B2D5F404A5
:0600F2008430D502F40485
:0300F800FB800684
:0400FB007B00800204
:0200FF007B0084
:070101008B8212007980904F
:06003700E478FFF6D8FD9D
:080015007900E94400601B7A48
:05001D000090010C78C9
:030022000075A0C6
:0A00250000E493F2A308B8000205FE
:08002F00A0D9F4DAF275A0FF7C
:08003D007800E84400600A7934
:030045000075A0A3
:0600480000E4F309D8FCFE
:08004E007800E84400600C7921
:0B00560000900000E4F0A3D8FCD9FAF1
:03000800758107F8
:0A000B00120108E582600302000301
:0401080075820022DA
:00000001FF
