:03000000020006F5
:03005F0002000399
:0300030002008A6E
:1000620075802A22759850438920758DCC758BCC6A
:10007200D28ED29922AF8210990280FB8F992210E0
:10008200980280FB859982221200621200667582B4
:1000920000120077120081AF82C007120081AE8287
:1000A200C006120081AD82D006D007BE2A02801A95
:1000B200BE2B02800ABE2D02800ABE2F388012EDAE
:1000C2002FFE8033EFC39DFE802D8DF0EFA4FE80C6
:1000D20026ED601DC2D5ED30E704B2D5F404F5F08B
:1000E200EF30E704B2D5F4048430D502F404FE8084
:0E00F200067E0080027E008E821200778096CD
:06003500E478FFF6D8FD9F
:100013007900E94400601B7A00900104780175A01F
:1000230000E493F2A308B8000205A0D9F4DAF2754C
:02003300A0FF2C
:10003B007800E84400600A790175A000E4F309D860
:10004B00FC7800E84400600C7900900001E4F0A318
:04005B00D8FCD9FAFA
:0D000600758107120100E58260030200030E
:0401000075820022E2
:00000001FF
