:0600000002001B02009546
:03000B000200DA16
:0300130002009850
:06007400E4F50AF50B752E
:05007A000800750900FB
:03007F0002001666
:0500160012013B80FE19
:0A00820075080075090075B00075DF
:09008C00A00075900075800022AF
:03009500B28C32F8
:0C009800C020C0E0C0F0C082C083C002E5
:0E00A400C003C004C005C006C007C000C001F4
:0B00B200C0D075D000208C031200822B
:0E00BD00D0D0D001D000D007D006D005D0049E
:0D00CB00D003D002D083D082D0F0D0E0D09E
:0200D8002032D4
:0C00DA00C0E0C0F0C0D075D000050AE402
:0500E600B50A02050B44
:0A00EB007440B50A22741FB50B1D06
:0600F500E4F50AF50B051D
:0600FB0008743BB508008B
:09010100500F0509743BB509001B
:05010A0050037509001F
:03010F0075080070
:0C01120075F00AE5088485F08075F00A9D
:0A011E00E50884F59075F00AE50984
:0C0128008485F0A075F00AE50984F5B0AC
:07013400D0D0D0F0D0E03282
:0E013B00758902758C06858C8AD288D28AD28C
:0A014900A8D2AAD2A9120082D2AFF8
:0201530080FE2C
:06004A00E478FFF6D8FD8A
:080028007900E94400601B7A35
:05003000009001597869
:030035000075A0B3
:0A00380000E493F2A308B8000205EB
:08004200A0D9F4DAF275A0FF69
:080050007800E84400600A7921
:030058000075A090
:06005B0000E4F309D8FCEB
:080061007800E84400600C790E
:0B00690000900000E4F0A3D8FCD9FADE
:03001B00758120CC
:0A001E00120155E58260030200168E
:04015500758200228D
:00000001FF
