:0400000002001332B5
:03000B000200EB05
:08006C00750800750900E4F5B8
:040074000AF50BC2BC
:010078000087
:0300790002000E74
:05000E0012016080FEFC
:08007C00AA82AB837C007D0029
:0B008400C3EC9AED9B50147EF07F004F
:05008F001EBEFF011F71
:0B009400EE4F70F70CBC00E80D80E59B
:01009F00223E
:0E00A000438901758CF8758A30D2A9D2AFD28F
:0200AE008C22A2
:0B00B00075F00AE50884FA75F00AE517
:0A00BB000884ABF075F00AE5098433
:0B00C500FC75F00AE50984ADF0EA903C
:0E00D000017293F5B0EB90017293F5A0EC90E5
:0D00DE00017293F590ED90017293F5802270
:0E00EB00C0E0C0D075D000758CF8758A30303A
:0600F900002E050AE4B52B
:0400FF000A02050BE1
:0A010300C3E50A94E8E50B940340FD
:07010D001BE4F50AF50B05E8
:080114000974C42509500E75A1
:07011C000900050874C42569
:06012300085003750800FE
:05012900D0D0D0E0324F
:0E012E00E5A0701090001412007CE5A0700691
:02013C00B2000F
:04013E00E5A060FCDC
:0E014200E590701990001412007CE590700F8B
:06015000C200E4F508F511
:0401560009F50AF5A8
:01015A000B99
:04015B00E59060FCCF
:01015F00227D
:030160001200A0EA
:0B0163001200B012012E75800080F524
:0A017200C0F9A4B0999282F88090C1
:06004200E478FFF6D8FD92
:080020007900E94400601B7A3D
:050028000090017C784E
:03002D000075A0BB
:0A00300000E493F2A308B8000205F3
:08003A00A0D9F4DAF275A0FF71
:080048007800E84400600A7929
:030050000075A098
:0600530000E4F309D8FCF3
:080059007800E84400600C7916
:0B00610000900000E4F0A3D8FCD9FAE6
:03001300758120D4
:0A00160012016EE582600302000E85
:04016E007582002274
:00000001FF
