:060000000200190201F1EB
:03000B00020126C9
:0300130002027670
:0F00720075083C750A00E4F50BF50CC200C201DD
:03008C0002001659
:030016000202BE25
:10008F007580FF75907F75A060750A0075083C53E9
:10009F0089F0438901758C3C758AB0D2A9D288D278
:1000AF008AD2A8D2AAD2AFD28C22AE087F00751105
:1000BF000A8F128E828F83C007C0061203F2AC82A2
:1000CF00D006D007ECC454F0FC75110A7512008EDF
:1000DF00828F83C0041203BCAE82D004EE4CF5A015
:1000EF00AE0A7F0075110A8F128E828F83C007C0F0
:1000FF00061203F2AC82D006D007ECC454F0FC75A4
:10010F00110A7512008E828F83C0041203BCAE8257
:10011F00D004EE4CF58022C021C0E0C0F0C082C0F8
:10012F0083C007C006C005C004C003C002C001C021
:10013F0000C0D075D00030005F050BE4B50B020591
:10014F000CC3E50B9428E50C940050030201D4E492
:10015F00F50BF50CE508603C1508AE087F0075112E
:10016F000A8F128E828F83C007C0061203F2AC82F1
:10017F00D006D007ECC454F0FC75110A7512008E2E
:10018F00828F83C0041203BCAE82AF83D004EE4CC7
:10019F00F5A08031C200802DE5087029050BE4B56C
:1001AF000B02050CC3E50B9428E50C94004016E4F4
:1001BF00F50BF50CB2013001067E367F0080047E10
:1001CF00497F008E90D0D0D000D001D002D003D084
:1001DF0004D005D006D007D083D082D0F0D0E0D0A5
:1001EF002132C021C0E0C0F0C082C083C007C0066A
:1001FF00C005C004C003C002C001C000C0D075D08C
:10020F0000200026743CB50821AE8A7F008E828FB5
:10021F00831203321202C67511647512001203BCE9
:10022F00AE82AF838E09D200802030001DC3E50956
:10023F00950A50057590098011C3E50A9509500577
:10024F007590478005759011C200D0D0D000D001B5
:10025F00D002D003D004D005D006D007D083D082EF
:10026F00D0F0D0E0D02132C021C0E0C0F0C082C0B9
:10027F0083C007C006C005C004C003C002C001C0D0
:10028F0000C0D075D0003000097580FF85800A123C
:10029F0000B9D0D0D000D001D002D003D004D00507
:1002AF00D006D007D083D082D0F0D0E0D021321248
:0702BF00008F1200B980FE60
:0B008100750D01E4F50EF50F75108001
:1002C600AC0DAD0EAE0FAF108D00EEC313C813C844
:1002D600C313C813C8F9EF030354C049F9EF030366
:1002E600543FFA7B00EC6200ED6201EE6202EF62BF
:1002F60003E828FDE933FEEA33FF7C00E86204E9FF
:100306006205EA6206EB6207EFC313F8E4F9FAFB4B
:10031600E86204E96205EA6206EB62078C0D8D0E5F
:100326008E0F8F108C82747F5DF58322AE82AF8331
:100336007D007C008E0D8F0E8D0F74804CF5102283
:06004800E478FFF6D8FD8C
:100026007900E94400601B7A0090042E780175A0DF
:1000360000E493F2A308B8000205A0D9F4DAF27539
:02004600A0FF19
:10034600E511451260467A01E51125E0F511E51241
:10035600334012F512E5829511E583951240030AA2
:1003660080E6C3E51213F512E51113F511C3E58214
:100376009511F5F0E58395124005F58385F082C366
:0D038600E51213F512E51113F511DAE1226D
:10004E007800E84400600A790175A000E4F309D84D
:10005E00FC7800E84400600C7900900001E4F0A305
:04006E00D8FCD9FAE7
:100393007A10E4FBFCE58225E0F582E58333F583FF
:1003A300EB33FBEC33FCEB9511F5F0EC95124006C7
:0903B300FCABF0438201DADD220B
:0D00190075812112042AE5826003020016A1
:1003BC00C2D5E58330E70DD2D5E4C39582F582E44E
:1003CC009583F583E51230E70BE4C39511F511E441
:1003DC009512F51212034630D50BE4C39582F582C3
:1003EC00E49583F58322C2D5E58330E70DD2D5E4BD
:1003FC00C39582F582E49583F583E51230E70DB25F
:10040C00D5E4C39511F511E49512F512120393304E
:10041C00D50BE4C39582F582E49583F5832275822E
:02042C000022AC
:00000001FF
