:060000000200190201D606
:03000B00020124CB
:0300130002025B8B
:0D00720075083C750A00750B00C200C20144
:03008A000200165B
:030016000202A340
:20008D007580FF75907F75A060750A0075083C5389F0438901758C3C758AB0D2A9D288D202
:2000AD008AD2A8D2AAD2AFD28C22AE087F0075100A8F118E828F83C007C0061203DAAC8282
:2000CD00D006D007ECC454F0FC75100A7511008E828F83C0041203A4AE82D004EE4CF5A0EF
:2000ED00AE0A7F0075100A8F118E828F83C007C0061203DAAC82D006D007ECC454F0FC75AF
:20010D00100A7511008E828F83C0041203A4AE82D004EE4CF58022C021C0E0C0F0C082C08B
:20012D0083C007C006C005C004C003C002C001C000C0D075D00030004F050B74D8250B50E3
:20014D0067750B00E508603C1508AE087F0075100A8F118E828F83C007C0061203DAAC82D5
:20016D00D006D007ECC454F0FC75100A7511008E828F83C0041203A4AE82AF83D004EE4CB1
:20018D00F5A08024C2008020E508701C050B74F6250B5014750B00B2013001067E367F0093
:2001AD0080047E437F008E90D0D0D000D001D002D003D004D005D006D007D083D082D0F0AF
:2001CD00D0E0D0213275B0AA22C021C0E0C0F0C082C083C007C006C005C004C003C002C03D
:2001ED0001C000C0D075D000200026743CB50821AE8A7F008E828F8312031A1202AE751039
:20020D00647511001203A4AE82AF838E09D200802030001DC3E509950A5005759009801132
:20022D00C3E50A950950057590478005759011C200D0D0D000D001D002D003D004D005D004
:20024D0006D007D083D082D0F0D0E0D02132C021C0E0C0F0C082C083C007C006C005C004B0
:20026D00C003C002C001C000C0D075D0003000097580FF85800A1200B7D0D0D000D001D080
:20028D0002D003D004D005D006D007D083D082D0F0D0E0D0213212008D1200B71201D28021
:0102AD00FE52
:0B007F00750C01E4F50DF50E750F8007
:2002AE00AC0CAD0DAE0EAF0F8D00EEC313C813C8C313C813C8F9EF030354C049F9EF03039E
:2002CE00543FFA7B00EC6200ED6201EE6202EF6203E828FDE933FEEA33FF7C00E86204E9CE
:2002EE006205EA6206EB6207EFC313F8E4F9FAFBE86204E96205EA6206EB62078C0C8D0DDE
:20030E008E0E8F0F8C82747F5DF58322AE82AF837D007C008E0C8F0D8D0E74804CF50F220B
:06004800E478FFF6D8FD8C
:200026007900E94400601B7A00900416780175A000E493F2A308B8000205A0D9F4DAF27566
:02004600A0FF19
:20032E00E510451160467A01E51025E0F510E511334012F511E5829510E583951140030A5C
:20034E0080E6C3E51113F511E51013F510C3E5829510F5F0E58395114005F58385F082C311
:0D036E00E51113F511E51013F510DAE12289
:20004E007800E84400600A790175A000E4F309D8FC7800E84400600C7900900001E4F0A3B0
:04006E00D8FCD9FAE7
:20037B007A10E4FBFCE58225E0F582E58333F583EB33FBEC33FCEB9510F5F0EC9511400686
:09039B00FCABF0438201DADD2223
:0D001900758121120412E5826003020016B9
:2003A400C2D5E58330E70DD2D5E4C39582F582E49583F583E51130E70BE4C39510F510E479
:1603C4009511F51112032E30D50BE4C39582F582E49583F5832259
:2003DA00C2D5E58330E70DD2D5E4C39582F582E49583F583E51130E70DB2D5E4C39510F5AE
:1803FA0010E49511F51112037B30D50BE4C39582F582E49583F58322E0
:0404120075820022CD
:00000001FF
