:0600000002005C02019207
:03000B00020121CE
:030013000201CB1C
:100018000000E2FBEAF2802C0000E0FBEAF080241A
:10002800E6B50202EBF62200E2B50202EBF222008C
:10003800E0B50202EBF02230F6E0A88220F5D3EA20
:10004800C6F582228B822230F6E6A88220F5D98076
:01005800CFD8
:1000B50075083C750932750A00750B00C200C2014E
:0300C500020059DD
:0300590002021090
:1000C8007580FF75907F75A060750A0075083C53B0
:1000D80089F0438901758C3C758AB0D2A9D288D23F
:1000E8008AD2A8D2AAD2AFC28C22AF088F0675F0E6
:1000F8000AEE84C454F0FE75F00AEF84E5F04EF57C
:10010800A0AF0A8F0675F00AEE84C454F0FE75F0AD
:100118000AEF84E5F04EF58022C0E0C0F0C007C0C9
:1001280006C0D075D000758C3C758AB0300030059B
:100138000B74D8250B5044750B00E508601B150897
:10014800AF088F0675F00AEE84C454F0FE75F00A05
:10015800EF84E5F04EF5A08022C200C28C801CE539
:10016800087018050B74F6250B5010750B00B201BA
:100178003001047F3680027F438F90D0D0D006D0E4
:1001880007D0F0D0E03275B0AA22C0E0C0D020007D
:100198000B743CB50806D200D28C802230001FC3F5
:1001A800E509950A50057590098013C3E50A950974
:1001B80050057590478007759011C200C28CD0D049
:1001C800D0E032C021C0E0C0F0C082C083C007C008
:1001D80006C005C004C003C002C001C000C0D0757D
:1001E800D00030000685800A1200F2D0D0D000D0AE
:1001F80001D002D003D004D005D006D007D083D0D8
:1002080082D0F0D0E0D021321200C81200F21201E0
:030218008E80FED7
:06008B00E478FFF6D8FD49
:100069007900E94400601B7A0090021F780175A0AD
:1000790000E493F2A308B8000205A0D9F4DAF275F6
:02008900A0FFD6
:100091007800E84400600A790175A000E4F309D80A
:1000A100FC7800E84400600C7900900001E4F0A3C2
:0400B100D8FCD9FAA4
:0D005C0075812112021BE58260030200592C
:04021B0075820022C6
:00000001FF
