:0600000002001902026D6E
:03000B0002012BC4
:030013000202F2F4
:1000720075083C750A00E4F50BF50C750DAAF50E32
:04008200C200C201F5
:0300910002001654
:0300160002033AA8
:100094007580FF75907F75A060750A0075083C53E4
:1000A40089F0438901758C3C758AB0D2A9D288D273
:1000B4008AD2A8D2AAD2AFD28C22AE087F007513FE
:1000C4000A8F148E828F83C007C006120474AC8218
:1000D400D006D007ECC454F0FC75130A7514008ED6
:1000E400828F83C00412043EAE82D004EE4CF5A08D
:1000F400AE0A7F0075130A8F148E828F83C007C0E7
:1001040006120474AC82D006D007ECC454F0FC751B
:10011400130A7514008E828F83C00412043EAE82CB
:10012400D004EE4CF58022C021C0E0C0F0C082C0F3
:1001340083C007C006C005C004C003C002C001C01C
:1001440000C0D075D00030005F050BE4B50B02058C
:100154000CC3E50B9428E50C940050030201D9E488
:10016400F50BF50CE508603C1508AE087F00751327
:100174000A8F148E828F83C007C006120474AC8267
:10018400D006D007ECC454F0FC75130A7514008E25
:10019400828F83C00412043EAE82AF83D004EE4C3F
:1001A400F5A08031C200802DE5087029050BE4B567
:1001B4000B02050CC3E50B9428E50C94004016E4EF
:1001C400F50BF50CB2013001067E367F0080047E0B
:1001D400437F008E90D0D0D000D001D002D003D085
:1001E40004D005D006D007D083D082D0F0D0E0D0A0
:1001F40021327F00300008E50860047F00800FE5AD
:100204000870047F0280077411B590027F01BF015A
:1002140022AD0E7E00E50BC39DFDE50C9EFEC3EDF5
:100224009401EE9400403D850B0EE50D23F50D85FC
:100234000DB022BF022BAE0E7F00E50BC39EFEE580
:100244000C9FFFC3EE9402EF94004018850B0EB28E
:10025400013001067EFF7F0080047E007F008EB0A7
:100264002275B0AA2275B0AA22C021C0E0C0F0C095
:1002740082C083C007C006C005C004C003C002C05A
:1002840001C000C0D075D000200026743CB5082100
:10029400AE8A7F008E828F831203B41203487513D3
:1002A4006475140012043EAE82AF838E09D20080BE
:1002B4002030001DC3E509950A5005759009801189
:1002C400C3E50A950950057590478005759011C2DC
:1002D40000D0D0D000D001D002D003D004D005D0BB
:1002E40006D007D083D082D0F0D0E0D02132C02114
:1002F400C0E0C0F0C082C083C007C006C005C0040F
:10030400C003C002C001C000C0D075D000300009D5
:100314007580FF85800A1200BED0D0D000D001D0F5
:1003240002D003D004D005D006D007D083D082D029
:10033400F0D0E0D021321200941200BE12026912F1
:0403440001F680FB43
:0B008600750F01E4F510F511751280F4
:10034800AC0FAD10AE11AF128D00EEC313C813C8B9
:10035800C313C813C8F9EF030354C049F9EF0303E3
:10036800543FFA7B00EC6200ED6201EE6202EF623C
:1003780003E828FDE933FEEA33FF7C00E86204E97C
:100388006205EA6206EB6207EFC313F8E4F9FAFBC9
:10039800E86204E96205EA6206EB62078C0F8D10D9
:1003A8008E118F128C82747F5DF58322AE82AF83AB
:1003B8007D007C008E0F8F108D1174804CF51222F9
:06004800E478FFF6D8FD8C
:100026007900E94400601B7A009004B0780175A05D
:1000360000E493F2A308B8000205A0D9F4DAF27539
:02004600A0FF19
:1003C800E513451460467A01E51325E0F513E514B5
:1003D800334012F514E5829513E583951440030A1A
:1003E80080E6C3E51413F514E51313F513C3E5828A
:1003F8009513F5F0E58395144005F58385F082C3E0
:0D040800E51413F514E51313F513DAE122E2
:10004E007800E84400600A790175A000E4F309D84D
:10005E00FC7800E84400600C7900900001E4F0A305
:04006E00D8FCD9FAE7
:100415007A10E4FBFCE58225E0F582E58333F5837C
:10042500EB33FBEC33FCEB9513F5F0EC9514400640
:09043500FCABF0438201DADD2288
:0D0019007581211204ACE58260030200161F
:10043E00C2D5E58330E70DD2D5E4C39582F582E4CB
:10044E009583F583E51430E70BE4C39513F513E4B8
:10045E009514F5141203C830D50BE4C39582F582BA
:10046E00E49583F58322C2D5E58330E70DD2D5E43A
:10047E00C39582F582E49583F583E51430E70DB2DA
:10048E00D5E4C39513F513E49514F5141204153041
:10049E00D50BE4C39582F582E49583F583227582AC
:0204AE0000222A
:00000001FF
