:0400000002001332B5
:03000B0002006F81
:03006C0002000E81
:05000E001200AC80FEB1
:0E006F00C0E0C082C083C002C003C0D075D004
:08007D00000508E4B5080205C6
:010085000971
:0C0086009000C3E493FA740193FBEAB508
:08009200080BEBB50907E4F5CA
:05009A0008F5090580D6
:0D009F00D0D0D003D002D083D082D0E03288
:0A00AC00758902758C06E4F508F56D
:0700B60009D2A9D2AFD28CE0
:0200BD0080FEC3
:0200C3008813A0
:06004200E478FFF6D8FD92
:080020007900E94400601B7A3D
:05002800009000C57806
:03002D000075A0BB
:0A00300000E493F2A308B8000205F3
:08003A00A0D9F4DAF275A0FF71
:080048007800E84400600A7929
:030050000075A098
:0600530000E4F309D8FCF3
:080059007800E84400600C7916
:0B00610000900000E4F0A3D8FCD9FAE6
:03001300758109EB
:0A0016001200BFE582600302000E35
:0400BF007582002224
:00000001FF
